:020000040800F2
:1000000000000520311D0008411C0008431C0008A9
:10001000451C0008471C0008491C0008000000009F
:1000200000000000000000000000000061D5000892
:100030004B1C00080000000001D6000865D600082F
:10004000811D0008811D0008811D0008811D000818
:10005000811D0008811D0008811D0008811D000808
:10006000811D0008811D0008811D0008811D0008F8
:10007000811D0008811D0008811D0008811D0008E8
:10008000811D0008811D0008811D0008811D0008D8
:10009000811D0008811D0008811D0008811D0008C8
:1000A000811D0008811D0008811D0008811D0008B8
:1000B000811D0008811D0008811D0008811D0008A8
:1000C000811D0008811D0008811D0008811D000898
:1000D000811D0008811D0008811D0008811D000888
:1000E000811D0008811D0008811D0008811D000878
:1000F000811D0008811D0008811D0008811D000868
:10010000811D0008811D0008811D0008811D000857
:10011000811D0008811D00084D1C0008811D00087C
:10012000591C0008811D0008811D0008811D000860
:10013000811D0008811D0008811D0008811D000827
:10014000811D0008811D0008811D0008811D000817
:10015000811D0008811D0008811D0008811D000807
:10016000811D0008811D0008811D0008811D0008F7
:10017000811D0008811D0008811D0008000000008D
:10018000811D0008811D0008811D0008811D0008D7
:10019000811D0008811D0008811D0008811D0008C7
:1001A000651C0008811D0008711C0008811D0008E5
:1001B000811D0008811D0008811D0008811D0008A7
:0801C000811D0008811D0008EB
:1001D00010B5054C237833B9044B13B10448AFF381
:1001E00000800123237010BD2401002000000000C6
:1001F000FC6B030808B5034B1BB103490348AFF37D
:10020000008008BD0000000028010020FC6B0308EE
:1002100001F0FF01102A2BDB10F0070F08D010F8B7
:10022000013B013A8B422DD010F0070F42B3F6D1BB
:10023000F0B441EA012141EA014122F007047FF0D4
:1002400000070023F0E80256083C85EA010586EA2B
:10025000010685FA47F5A3FA87F586FA47F6A5FA67
:1002600087F68EB9EED1F0BC01F0FF0102F0070273
:1002700032B110F8013B013A83EA010313B1F8D11E
:100280000020704701387047002D06BF35460338FF
:10029000073815F0010F07D1013015F4807F02BF38
:1002A000013015F4C03F0130F0BC0138704700BF89
:1002B00081F0004102E000BF83F0004330B54FEA17
:1002C00041044FEA430594EA050F08BF90EA020F84
:1002D0001FBF54EA000C55EA020C7FEA645C7FEA17
:1002E000655C00F0E2804FEA5454D4EB5555B8BF3A
:1002F0006D420CDD2C4480EA020281EA030382EAAB
:10030000000083EA010180EA020281EA0303362D3C
:1003100088BF30BD11F0004F4FEA01314FF4801C0F
:100320004CEA113102D0404261EB410113F0004F21
:100330004FEA03334CEA133302D0524263EB4303D8
:1003400094EA050F00F0A780A4F10104D5F1200E76
:100350000DDB02FA0EFC22FA05F2801841F10001D1
:1003600003FA0EF2801843FA05F359410EE0A5F1A5
:1003700020050EF1200E012A03FA0EFC28BF4CF0D6
:10038000020C43FA05F3C01851EBE37101F000458C
:1003900007D54FF0000EDCF1000C7EEB00006EEB99
:1003A0000101B1F5801F1BD3B1F5001F0CD3490823
:1003B0005FEA30004FEA3C0C04F101044FEA44527A
:1003C00012F5800F80F09A80BCF1004F08BF5FEA01
:1003D000500C50F1000041EB045141EA050130BDE1
:1003E0005FEA4C0C404141EB0101013C28BFB1F5F3
:1003F000801FE9D291F0000F04BF01460020B1FA3E
:1004000081F308BF2033A3F10B03B3F120020CDA10
:100410000C3208DD02F1140CC2F10C0201FA0CF0EE
:1004200021FA02F10CE002F11402D8BFC2F1200C53
:1004300001FA02F120FA0CFCDCBF41EA0C01904009
:10044000E41AA2BF01EB0451294330BD6FEA040452
:100450001F3C1CDA0C340EDC04F11404C4F120023D
:1004600020FA04F001FA02F340EA030021FA04F34F
:1004700045EA030130BDC4F10C04C4F1200220FAA6
:1004800002F001FA04F340EA0300294630BD21FAE4
:1004900004F0294630BD94F0000F83F4801306BFAA
:1004A00081F480110134013D4EE77FEA645C18BF9E
:1004B0007FEA655C29D094EA050F08BF90EA020F35
:1004C00005D054EA000C04BF1946104630BD91EA2D
:1004D000030F1EBF0021002030BD5FEA545C05D130
:1004E0004000494128BF41F0004130BD14F580046F
:1004F0003CBF01F5801130BD01F0004545F0FE41E3
:1005000041F470014FF0000030BD7FEA645C1ABF17
:10051000194610467FEA655C1CBF0B46024650EA4E
:10052000013406BF52EA033591EA030F41F400217A
:1005300030BD00BF90F0000F04BF0021704730B500
:100540004FF4806404F132044FF000054FF00001D5
:1005500050E700BF90F0000F04BF0021704730B596
:100560004FF4806404F1320410F0004548BF40426B
:100570004FF000013EE700BF42004FEAE2014FEAC0
:1005800031014FEA02701FBF12F07F4393F07F4F9B
:1005900081F06051704732F07F4208BF704793F09E
:1005A0007F4F04BF41F40021704730B54FF46074B1
:1005B00001F0004521F000411CE700BF50EA0102B4
:1005C00008BF704730B54FF000050AE050EA01025D
:1005D00008BF704730B511F0004502D5404261EBCD
:1005E00041014FF4806404F132045FEA915C3FF40E
:1005F000D8AE4FF003025FEADC0C18BF03325FEAAB
:10060000DC0C18BF033202EBDC02C2F1200300FA5B
:1006100003FC20FA02F001FA03FE40EA0E0021FA80
:1006200002F11444BDE600BF70B54FF0FF0C4CF46E
:10063000E06C1CEA11541DBF1CEA135594EA0C0F20
:1006400095EA0C0F00F0DEF82C4481EA030621EA5B
:100650004C5123EA4C5350EA013518BF52EA033596
:1006600041F4801143F4801338D0A0FB02CE4FF048
:100670000005E1FB02E506F00042E0FB03E54FF078
:100680000006E1FB03569CF0000F18BF4EF0010E70
:10069000A4F1FF04B6F5007F64F5407404D25FEA6C
:1006A0004E0E6D4146EB060642EAC62141EA55511F
:1006B0004FEAC52040EA5E504FEACE2EB4F1FD0C61
:1006C00088BFBCF5E06F1ED8BEF1004F08BF5FEADF
:1006D000500E50F1000041EB045170BD06F0004691
:1006E00046EA010140EA020081EA0301B4EB5C043E
:1006F000C2BFD4EB0C0541EA045170BD41F4801136
:100700004FF0000E013C00F3AB8014F1360FDEBF5A
:10071000002001F0004170BDC4F10004203C35DA36
:100720000C341BDC04F11404C4F1200500FA05F3B9
:1007300020FA04F001FA05F240EA020001F000425A
:1007400021F0004110EBD37021FA04F642EB0601D0
:100750005EEA430E08BF20EAD37070BDC4F10C04FA
:10076000C4F1200500FA04F320FA05F001FA04F2BE
:1007700040EA020001F0004110EBD37041F10001AA
:100780005EEA430E08BF20EAD37070BDC4F12005B5
:1007900000FA05F24EEA020E20FA04F301FA05F21D
:1007A00043EA020321FA04F001F0004121FA04F2C5
:1007B00020EA020000EBD3705EEA430E08BF20EA95
:1007C000D37070BD94F0000F0FD101F000464000CF
:1007D00041EB010111F4801F08BF013CF7D041EA51
:1007E000060195F0000F18BF704703F00046520055
:1007F00043EB030313F4801F08BF013DF7D043EA26
:100800000603704794EA0C0F0CEA135518BF95EADB
:100810000C0F0CD050EA410618BF52EA4306D1D162
:1008200081EA030101F000414FF0000070BD50EA81
:10083000410606BF1046194652EA430619D094EA0B
:100840000C0F02D150EA013613D195EA0C0F05D1F5
:1008500052EA03361CBF104619460AD181EA030149
:1008600001F0004141F0FE4141F470014FF0000001
:1008700070BD41F0FE4141F4780170BD70B54FF09C
:10088000FF0C4CF4E06C1CEA11541DBF1CEA13551C
:1008900094EA0C0F95EA0C0F00F0A7F8A4EB0504FE
:1008A00081EA030E52EA03354FEA013100F08880F5
:1008B0004FEA03334FF0805545EA131343EA1263BE
:1008C0004FEA022245EA111545EA10654FEA002673
:1008D0000EF000419D4208BF964244F1FD0404F52C
:1008E000407402D25B084FEA3202B61A65EB030588
:1008F0005B084FEA32024FF480104FF4002CB6EB45
:10090000020E75EB030E22BFB61A754640EA0C00C4
:100910005B084FEA3202B6EB020E75EB030E22BF04
:10092000B61A754640EA5C005B084FEA3202B6EB45
:10093000020E75EB030E22BFB61A754640EA9C0004
:100940005B084FEA3202B6EB020E75EB030E22BFD4
:10095000B61A754640EADC0055EA060E18D04FEA92
:10096000051545EA16754FEA06164FEAC30343EA32
:1009700052734FEAC2025FEA1C1CC0D111F4801FFF
:100980000BD141EA00014FF000004FF0004CB6E7F8
:1009900011F4801F04BF01430020B4F1FD0C88BF97
:1009A000BCF5E06F3FF6AFAEB5EB030C04BFB6EBA2
:1009B000020C5FEA500C50F1000041EB045170BD95
:1009C0000EF0004E4EEA113114EB5C04C2BFD4EBC2
:1009D0000C0541EA045170BD41F480114FF0000E46
:1009E000013C90E645EA060E8DE60CEA135594EAC2
:1009F0000C0F08BF95EA0C0F3FF43BAF94EA0C0FC5
:100A00000AD150EA01347FF434AF95EA0C0F7FF439
:100A100025AF104619462CE795EA0C0F06D152EA8D
:100A200003353FF4FDAE1046194622E750EA410671
:100A300018BF52EA43067FF4C5AE50EA41047FF482
:100A40000DAF52EA43057FF4EBAE12E74FEA4102E5
:100A5000B2F1E04324BFB3F5001CDCF1FE5C0DD91C
:100A600001F0004C4FEAC0024CEA5070B2F1004F66
:100A700040EB830008BF20F00100704711F0804F69
:100A800021D113F13872BCBF01F00040704741F42E
:100A900080114FEA5252C2F11802C2F1200C10FA32
:100AA0000CF320FA02F018BF40F001004FEAC12316
:100AB0004FEAD32303FA0CFC40EA0C0023FA02F3BA
:100AC0004FEA4303CCE77FEA625307D150EA013390
:100AD0001EBF4FF0FE4040F44000704701F0004060
:100AE00040F0FE4040F40000704700BF7BB972B98F
:100AF0000029BEBF00204FF0004106E008BF0028DB
:100B00001CBF6FF000414FF0FF3000F0B5B9ADF100
:100B1000080C6DE904CE002909DB002B1ADB00F07C
:100B20004DF8DDF804E0DDE9022304B070474042EF
:100B300061EB4101002B1BDB00F040F8DDF804E025
:100B4000DDE9022304B0404261EB4101524263EB14
:100B500043037047524263EB430300F02FF8DDF884
:100B600004E0DDE9022304B0404261EB410170473B
:100B7000524263EB430300F021F8DDF804E0DDE9C5
:100B8000022304B0524263EB4303704753B94AB99E
:100B9000002908BF00281CBF4FF0FF314FF0FF3085
:100BA00000F06AB9ADF1080C6DE904CE00F006F86A
:100BB000DDF804E0DDE9022304B070472DE9F047D9
:100BC000089D0C46002B4ED194468C458646B2FAC1
:100BD00082F262D94AB1C2F12003914020FA03F3B4
:100BE0000CFA02FC194300FA02FE4FEA1C471FFAF6
:100BF0008CF6B1FBF7F44FEA1E4307FB141143EAEE
:100C0000014304FB06F199420AD91CEB030304F1EA
:100C1000FF3080F01281994240F20F81023C634420
:100C2000591A1FFA8EF3B1FBF7F007FB101143EAD4
:100C3000014300FB06F69E420AD91CEB030300F1B8
:100C4000FF3180F0FC809E4240F2F980634402381C
:100C50009B1B40EA044000211DB1D3400022C5E99E
:100C60000032BDE8F0878B4205D90DB1C5E900011E
:100C700000210846F5E7B3FA83F1002946D1A342E3
:100C800002D39042C0F0F080861A64EB0303012087
:100C9000002DE6D0C5E90063E3E7002A40F090802C
:100CA000A1EB0C044FEA1C481FFA8CF70121B4FB9E
:100CB000F8F64FEA1E4308FB164443EA044307FBD9
:100CC00006F0984208D91CEB030306F1FF3402D268
:100CD000984200F2CD8026461C1A1FFA8EF3B4FB10
:100CE000F8F008FB104443EA044300FB07F79F4277
:100CF00008D91CEB030300F1FF3402D29F4200F23B
:100D0000B0802046DB1B40EA0640A5E7C1F1200683
:100D10008B4022FA06F71F4320FA06FC04FA01F37F
:100D200043EA0C03F44000FA01F8380C4FEA134987
:100D3000B4FBF0FE1FFA87FC00FB1E4449EA0444A2
:100D40000EFB0CF9A14502FA01F20AD93C190EF189
:100D5000FF3A80F08480A14540F28180AEF1020E1E
:100D60003C44A4EB09041FFA83F9B4FBF0F300FB45
:100D7000134449EA044403FB0CFCA44507D93C197D
:100D800003F1FF3067D2A44565D9023B3C4443EAF6
:100D90000E40A0FB0293A4EB0C049C42CE469C4662
:100DA00051D34ED055B1B8EB0E0364EB0C0404FAEA
:100DB00006F6CB401E43CC40C5E90064002150E755
:100DC000C2F1200320FA03F10CFA02FC24FA03F327
:100DD00094400C434FEA1C4800FA02FE1FFA8CF7BD
:100DE000B3FBF8F008FB1031230C43EA014300FB8E
:100DF00007F1994208D91CEB030300F1FF362CD20E
:100E000099422AD9023863445B1AA4B2B3FBF8F1C1
:100E100008FB113344EA034401FB07F3A34208D95A
:100E20001CEB040401F1FF3613D2A34211D902399D
:100E30006444E41A41EA004139E70446F0E6084612
:100E400006E7C845AED2B9EB020E63EB070C0138DA
:100E5000A8E73146EDE7034699E73046D4E7D646A2
:100E60007FE7634402384DE70646234608460FE70E
:100E7000023E634430E700BF704700BF01490020D5
:100E80000DF07EBD2D22000808B564200BF07AFF1E
:100E9000FBE7000010B594B01022002102240AA83C
:100EA00034F018FF1422002103A834F013FF1D4B67
:100EB000192108A81A6C42F080521A641B6C03F0C6
:100EC00080530193019B184B1A6842F440421A6008
:100ED00001221B6803F440430293029B4FF48033CA
:100EE000CDE908234FF48003CDE90E434FF4D873C6
:100EF000CDE91244CDE910130AF02AFC0AF0C6F835
:100F00000F2300200721CDE903344FF4A053CDE98E
:100F100005034FF4805303A807930AF001FE14B0B1
:100F200010BD00BF00380240007000402DE980482D
:100F3000A5B010220021012517A8002434F0CAFE14
:100F400008F05AFECB4B4FF01040ADF85C501A94AD
:100F5000CDE9180317A808F06DFE172317A88DF820
:100F60005D508DF864308DF86A5008F063FE0420FF
:100F700008F050FEBFF34F8FBFF36F8FBE4AC2F829
:100F80005042BFF34F8FBFF36F8F536943F4003369
:100F90005361BFF34F8FBFF36F8FC2F88440BFF32D
:100FA0004F8FD2F8803043F6E074C3F3C900C3F327
:100FB0004E335B0103EA0406014646EA81750139B6
:100FC000C2F86052F9D2203B13F1200FF2D1BFF3E7
:100FD0004F8F536943F480335361BFF34F8FBFF397
:100FE0006F8FA64F08F03AFBFFF754FF1422002141
:100FF00017A834F06FFE3B6B0022102143F0100362
:101000009F48002401263B6310253B6B4FF00308EB
:101010004FF480594FF0400B03F01003DFF880A22B
:101020000293029B3B6B43F002033B633B6B03F079
:1010300002030393039B3B6B43F001033B633B6B56
:1010400003F001030493049B3B6B43F040033B63B9
:101050003B6B03F040030593059B3B6B43F400732C
:101060003B633B6B03F400730693069B3B6B43F0BF
:1010700008033B633B6B03F008030793079B3B6B41
:1010800043F480633B633B6B03F480630893089BEA
:101090003B6B43F020033B633B6B03F0200309935E
:1010A000099B3B6B43F480733B633B6B03F480739E
:1010B0000A930A9B3B6B43F080033B633B6B03F05B
:1010C00080030B930B9B3B6B43F004033B633B6B35
:1010D00003F004030C930C9B09F08AFA0122082107
:1010E000684809F085FA01224FF48051664809F0FA
:1010F0007FFA0022C021654809F07AFA00224021D7
:10110000634809F075FA17A95D48CDE91756CDE98E
:10111000194809F0E9F8082317A95A48CDE9173604
:10112000CDE9194409F0E0F817A95748CDE9179619
:10113000CDE9194409F0D8F8C02317A95348CDE9DF
:101140001736CDE9194809F0CFF817A95048CDE96D
:1011500017B6CDE9194809F0C7F83B6B22460521BF
:1011600043F4800338203B633B6B4A4F03F4800316
:101170000193019B08F0EEFC382008F01DFD464B62
:101180003846C7E90034C7E90244C7E90A44C7E959
:101190000C4408F0ABFF31463846042709F05EF8EE
:1011A0003E4BCAF814B017A9DFF8F8B05046CAF899
:1011B0000840CAF82840CAE900344FF4C073CAE9AD
:1011C00006344FF40063CAE9083907234FF00209D7
:1011D000CDE91973CDE91793CAE90375CDE91B89E8
:1011E000CDF874900AF0F2FF59464FF6FF72504660
:1011F0000094CBE90065CBE902640BF007F83046B8
:1012000008F050FA59464FF6FF725046CBE9009568
:10121000CBE902640AF0FAFF082359464FF6FF7241
:101220005046CBE90234CBE900850AF0EFFF4FF4DA
:101230000C72594650460092009ACBF80860CBF8E1
:101240000C204FF6FF72CBE900750AF0DFFF40F289
:101250002B715046DFF850A00AF0F7FF43F2D2019D
:101260004FF0204264204FF0050B116008F01AFA8D
:101270001CE000BF1B00000300ED00E0003802404E
:101280000004024000280240002002400008024002
:10129000001802403C03002000B00240400100A0C2
:1012A0007401002058010020E80200209A4B9B4A5C
:1012B0005046CAF82040CAE90032CAE90246CAE9E3
:1012C0000444CAE9064409F0D4FA2146504609F01C
:1012D000F7FC21465046DFF894A209F017FD3422AE
:1012E000214617A834F0F6FC8D4A2821352040F21B
:1012F000152C40F2352ECAF81040AAF834408AF86E
:101300003640CAE900240922CAE905120B22CAE9BB
:10131000070240F21B125046CAE909C240F21D12F0
:10132000CAE90244CAE90BE209F09CFDFF204FF430
:10133000F0714FF4887217942292ADF88C408DF8BA
:101340008E40CDE91C044FF48060CDE91E0B4FF0B8
:101350004040CDE91814CDE92001CDE91A2917A99B
:10136000224650464FF0180A09F047FE6D486E4A73
:101370000462C0E900264FF4A062C0E90275C0E92A
:1013800004A2C0E9064409F09BFF4FF0060A07F0EB
:10139000E5FF07F02BFF5C2008F01CFC00F0C6FC0A
:1013A0002A46214617A8614D34F094FC604B4FF457
:1013B00080322846AC602E61AC6185F82040EC603C
:1013C000C5F81CA085F830606E61C5E900324FF0A9
:1013D0008052C5E90A4208F077F917A928461994FE
:1013E000CDE9174608F0F6FA17A92846CDE917798E
:1013F00008F0F0FA17A92846CDE917B808F0EAFA7C
:1014000017A92846CDE917A708F0E4FA072317A97A
:101410002846CDE9173B08F0DDFA082317A928462E
:10142000CDE9173A08F0D6FA52464249284608F064
:10143000F1F91C22214610A80F943F4DCDE90D442F
:1014400034F048FC21462C2217A834F043FC3B4AD8
:10145000D7232846AC60C5E9002343F67F63C5E97E
:101460000544C5E903340BF06DF90DA928460F9426
:10147000CDE90D440BF0DEFA4FF4FA7360212246F9
:1014800028461694CDE9101310A9CDE91244CDE9F0
:1014900014440BF0BFF94FF4005317A928461B94CE
:1014A0001E942194CDE91C344FF00073CDE917440C
:1014B000CDE91F34CDE919440BF006FB214628463F
:1014C0000BF0B6FA284600F0DDFA1D4B1D4803600C
:1014D00084800662C0E9054408F0D8FB00F052FCA5
:1014E00000F04FFC0BF0C0FB174A214617480BF0E9
:1014F000F5FB174B174A2146186017480BF0EEFB17
:10150000164B174A2146186016480BF0E7FB164B9E
:1015100018600BF0C3FBFEE7005C0040684740200A
:1015200000680140F4010020001000A00004002029
:101530000022014040010020A801002000000140DD
:10154000003002407C030020C46C0308890E0008B0
:1015500070010020A06C0308931D00086C0100209E
:101560007C6C030835380008680100204002002028
:10157000054A0023054932F8020B21F81300013314
:10158000062BF8D1704700BF400100204C0100201D
:101590000268034B9A4201D108F072B8704700BF4D
:1015A00000100040704700000D4B82B00F216FF01B
:1015B00001001A6C42F080521A641A6C02F08052D8
:1015C0000092009A5A6C42F480425A6400225B6C8A
:1015D00003F480430193019B02B008F0BBBA00BF43
:1015E0000038024070B588B005461422002103A8D7
:1015F00034F070FB2A68294B9A424CD103F58B33A7
:10160000032403A926485A6C002642F480625A64D7
:101610005A6C02F480620092009A1A6B42F0200227
:101620001A631A6B02F020020192019A1A6B42F0BF
:1016300001021A631B6B03F001030293029B4FF438
:10164000F863CDE9033408F04FFE012303A91548E0
:101650000596CDE9033408F047FE134C4FF0806344
:10166000124A4FF480614FF40050C4E900234FF454
:101670000063C4E904134FF48073C4E906032046F1
:10168000C4E90266C4E9086608F078FB08B1FFF710
:1016900089FFAC63A56308B070BD00BF00220140A4
:1016A0000014024000000240A00300201064024029
:1016B000026882B0084B9A420BD1D3F8302803F568
:1016C000006342F480521A631B6B03F4805301934E
:1016D000019B02B0704700BF003002400E4B07B5BF
:1016E00002689A4215D1A3F5F04305215A201A6BDE
:1016F00042F400021A6300221B6B03F400030193FF
:10170000019B08F027FA5A2003B05DF804EB08F0BB
:1017100053BA03B05DF804FB00B0024010B5A8B0A6
:1017200004461422002102A834F0D4FA84220021B5
:1017300007A834F0CFFA2268174B9A422AD14FF407
:10174000803307A807930AF0B7FA08B1FFF72AFF1A
:10175000124C4FF4C07201211148236B43F08003F7
:101760002363236B03F080030093009B1223CDE9D6
:1017700002230323CDE90413042302A9069308F0EE
:10178000B3FD236C43F400032364236C03F40003D0
:101790000193019B28B010BD005C0040003802405E
:1017A000001C0240026808B5094B9A420FD1094A51
:1017B00080210948136C23F40003136408F078FEB9
:1017C0004FF480710448BDE8084008F071BE08BDC0
:1017D000005C004000380240001C024070B5ACB014
:1017E00004461422002106A834F074FA8422002151
:1017F0000BA834F06FFA2268484B9A4240F08C8074
:101800000823052001240B934FF4C0731093022387
:10181000CDE911304FF400330BA8CDE915430AF0A0
:101820004BFA08B1FFF7BEFE3D4B002402250E2601
:101830005A6C06A93B4842F080625A645A6C02F026
:1018400080620092009A1A6B42F010021A631A6BBF
:1018500002F010020192019A1A6B42F400721A63AC
:101860001A6B02F400720292029A1A6B42F48062BE
:101870001A631A6B02F480620392039A1A6B42F0A5
:1018800040021A631A6B02F040020492049A1A6B27
:1018900042F480721A631B6B03F480730593059BFB
:1018A0001023CDE90635CDE908440A9608F01CFD61
:1018B0004EF6FF7306A91C480A96CDE90635CDE918
:1018C000084408F011FDF72306A918480A96CDE947
:1018D0000635CDE9084408F007FD4FF4805306A90A
:1018E0001348CDE906350923CDE908440A9308F0E9
:1018F000FBFC4FF4464306A90E480A96CDE906358F
:10190000CDE9084408F0F0FC58202246052108F0F3
:1019100021F9582008F050F92CB070BD0068014042
:10192000003802400010024000240240002802401B
:101930000018024000200240142200212DE9F0414D
:101940008AB004460DEB020034F0C4F922682C4B37
:101950009A4251D12B4B0225032409269A6B4FF052
:10196000040805A9284842F0020200279A639A6BEE
:1019700002F002020192019A1A6B42F010021A63FD
:101980001A6B02F010020292029A1A6B42F00202E3
:101990001A631A6B02F002020392039A1A6B42F066
:1019A00008021A631B6B03F008030493049BCDE940
:1019B0000585CDE9084608F097FC402305A91348A2
:1019C000CDE905350A23CDE90774099308F08CFCAD
:1019D00005A90E480996CDE90585CDE9077408F0FB
:1019E00083FC4FF4605305A909480996CDE90535F4
:1019F000CDE9077408F078FC0AB0BDE8F08100BFBB
:101A0000001000A000380240001002400004024014
:101A1000000C0240026808B50B4B9A4213D10B4AE6
:101A200004210B48936B23F00203936308F040FDFD
:101A30004421084808F03CFD4FF460510648BDE8D9
:101A4000084008F035BD08BD001000A00038024075
:101A50000010024000040240000C0240026882B004
:101A6000074B9A420AD103F59C335A6C42F00102AB
:101A70005A645B6C03F001030193019B02B0704751
:101A80000000014010B586B004461422002101A8D0
:101A900034F020F922680D4B9A4215D103F59C339E
:101AA00001A90B481A6B42F001021A634FF48072CD
:101AB0001B6B03F001030093009B0223CDE901237C
:101AC0000123059308F010FC06B010BD0000014092
:101AD00000000240F0B5002387B00393294B1E6835
:101AE000002E4DD10122022703250C241A6001A9E2
:101AF000254B26489A6B42F001029A639B6B03F0D8
:101B000001030093009B4FF68373CDE90454CDE9A4
:101B1000013708F0E9FB48F2331301A91C4805948A
:101B2000CDE90137CDE9036508F0DEFB4CF2037324
:101B300001A918480594CDE90137CDE9036508F0FE
:101B4000D3FB4FF63F0301A913480594CDE90137B4
:101B5000CDE9036508F0C8FB282301A90F480594C7
:101B6000CDE90137CDE9036508F0BEFB082301A9E3
:101B70000B480594CDE90137CDE9036508F0B4FBC6
:101B800007B0F0BD480400200038024000100240B9
:101B900000180240000C024000140240001C0240E9
:101BA00000080240214B1A6C42F0100270B51A6412
:101BB00088B01B6C054601A903A803F0100302932B
:101BC000029B0AF05BF8069B4BBB0AF047F8184EE5
:101BD000184B336040F2E733F360174BB0FBF3F37D
:101BE000013B3046736000233361B360B3610AF098
:101BF00079FD044680B930460AF026FC044658B9FF
:101C0000362007F0D9FF0F2D0DD822462946362061
:101C100007F0A0FF094B1D60204608B070BD0AF018
:101C20001DF84000D3E70124F6E700BF003802406A
:101C30004C0400200010004040420F003C000020F7
:101C40007047FEE7FEE7FEE7FEE7704701480AF04F
:101C50003DBC00BF4C040020014808F089B900BF1A
:101C6000A0030020014809F06BB900BF400200202A
:101C7000014808F069BA00BF3C030020012070470A
:101C800008B534F031F9162303604FF0FF3008BD7A
:101C900008B534F029F916230360FEE770B50D4648
:101CA00014460E46731B9C4201DC204670BDAFF308
:101CB000008006F8010BF5E770B50D4614460E4698
:101CC000731B9C4201DC204670BD16F8010BAFF37C
:101CD0000080F5E74FF0FF3070474FF400530020CD
:101CE0004B60704701207047002070470B4A034645
:101CF000116810B509B90A491160106809490A4C00
:101D00000344091B8B4206D934F0EEF80C23036020
:101D10004FF0FF3010BD1360FCE700BF98040020B7
:101D20002896012000000520000A000070470000EE
:101D3000DFF834D0002103E00C4B5B5843500431F2
:101D40000B480C4B42189A42F6D30B4A02E0002390
:101D500042F8043B094B9A42F9D307F097FB34F061
:101D6000C9F8FFF7E3F8704700000520F8D303082F
:101D700000000020240100202401002028960120DA
:101D8000FEE7704708B501F02FF9BDE8084001F003
:101D9000B1B801F02BB9406870474160704700004E
:101DA0004FF0E022D2F8FC3D43F08073C2F8FC3DD6
:101DB000054B064AD3F8B01F0A43C3F8B02F1A6880
:101DC00042F001021A607047001000E055CEACC529
:101DD000521A02EB5302B2FBF3F07047014B586802
:101DE000704700BF001000E0704710B504460C219A
:101DF00032F06DFD204610BD036810B51B69044626
:101E000031B19847A26863689B1A0344636010BDB0
:101E10009847A060FBE70000024B7020024A136065
:101E2000DB681847100000209C040020704710B5A4
:101E30000446042132F04BFD204610BD73B50E4E12
:101E40000D461446336813B9002002B070BD1B69FB
:101E5000702098470028F7D03368702001AA0DF150
:101E600006015B699847BDF8043001202B60BDF87E
:101E700006302360E9E700BF9C0400207FB5012302
:101E80008DF817204FF47A72CDE901320DF1170267
:101E900000920A460146054808F05AFD10B1034871
:101EA00008F03CFD07B05DF804FB00BFE80200202D
:101EB0007FB500230A464FF47A718DF8173001235D
:101EC000CDE901310DF1170100910146054808F0F7
:101ED00019FE10B1034808F021FD9DF8170007B066
:101EE0005DF804FBE8020020032823D8DFE800F0B7
:101EF000020B131A104B102110481A68B2FA82F222
:101F0000520908F075BB0C4B40215A68B2FA82F2B4
:101F100052090B48F5E7084B80219A68B2FA82F221
:101F20005209F6E7044B40210648DA68B2FA82F219
:101F30005209E6E7704700BFA004002000040240F9
:101F40000008024000180240032823D8DFE800F010
:101F5000020B131A104B102110481A68003A18BFD0
:101F6000012208F045BB0C4B40215A68003A18BFCB
:101F700001220B48F5E7084B80219A68003A18BF08
:101F80000122F6E7044B40210648DA68003A18BF00
:101F90000122E6E7704700BFA004002000040240D1
:101FA000000802400018024003280FD8DFE800F0C4
:101FB0000206090B1021064808F01FBB4021054806
:101FC000FAE78021FBE740210348F5E7704700BFAF
:101FD00000040240000802400018024008B503282F
:101FE00013D8DFE800F0020A0D0F1021084808F0AE
:101FF000F9FA431E5842584108BD40210548F6E70A
:102000008021FBE740210448F1E70020F1E700BF11
:1020100000040240000802400018024070B5084D5C
:1020200000240126E0B2FFF7D9FF18B12B68012B7D
:1020300018BF2E6001340435052CF3D170BD00BFEC
:10204000A0040020012380F8781080F879307047D0
:102050000020704741640039024B18BF01211970FC
:10206000704700BFEF89012000207047836B0BB1E0
:102070000846184770474FF6FF707047406803687E
:102080009B6918477047000038B5044601F0FCF81A
:10209000084923682046084DD3F88C309847002320
:1020A000284684F84A30FFF77BFE0123256184F837
:1020B000703038BD000000C0B004002001F086B8C8
:1020C00001F08AB870B501F009F910490023C1F890
:1020D0008430BFF34F8FD1F8803043F6E074C3F300
:1020E000C900C3F34E335B0103EA0406024646EA25
:1020F0008275013AC1F87452F9D2203B13F1200FD6
:10210000F2D1BFF34F8FBFF36F8F70BD00ED00E0D2
:1021100001F0E6B801F036B801F008BA01F010BAE3
:1021200001F03AB810B504461BF074F92368204654
:10213000D3F8AC30BDE8104018471AF0C9BB10B551
:1021400004467C2132F0C3FB204610BD90F83410C9
:102150000D4B10B590F878401A788C4209D03AB9F6
:102160000A490B4A08881488108001220C801A70D2
:1021700010BD002AFCD0064A0449148808880C8047
:1021800010800022F3E700BFE8890120E6890120E2
:10219000E489012070B50D46194635B9094B40F266
:1021A000D221094A094833F0D9FAC0E90F52003A5E
:1021B000074B18BF01221A700368BDE87040D3F8BE
:1021C0008C301847286D0308606D0308AE6D030856
:1021D000EE89012008B5094B1B888B4203D8084BB8
:1021E0001B88934205D9074B9E21074A074833F0C5
:1021F000B5FA074B1980074B1A8008BDE489012006
:10220000E6890120F36D0308566E0308AE6D0308DE
:10221000EA890120EC890120034690F87A0018B180
:10222000586803681B68184770470000014608B5E6
:10223000034B186801B101211BF006F9012008BD0C
:10224000F0890120034B00225A609A60024A1A600A
:10225000704700BFB0040020F06C03080121002289
:1022600008B508460AF044FE0A4B186028B90A4B24
:1022700028210A4A0A4833F071FA00220421012079
:102280000AF000FF074B186018B9074B2C21034ACE
:10229000F0E708BDC0040020746F0308BD6F030899
:1022A000EC6F0308BC0400204C700308024B4FF095
:1022B000FF3118680AF074BEC0040020014B186892
:1022C0000AF0AABEC0040020024B002118680AF0E0
:1022D00067BE00BFC0040020FFF7F0BF0023034823
:1022E00003491A4600680AF013BF00BFBC0400206F
:1022F0000400002013B50023074C01A91A462068EA
:102300000AF048FF4FF0FF33002201A920680AF0CD
:1023100041FF02B010BD00BFBC04002003685B6C2D
:1023200018470120704703689B6A18470D4B82B01D
:102330001A6B42F400021A631A6B02F40002019253
:10234000019A1A6942F400021A611A6922F4000221
:102350001A61054B054A1A614FF08062044B9A607E
:1023600002B07047003802403C030020FD25000801
:1023700000E100E040F2EF3070470000054B4FF005
:1023800080620360044BC3F88820BFF34F8FBFF314
:102390006F8F7047FC71030800E100E010B5044640
:1023A0004FF45A61FFF7EAFF204632F090FA2046D8
:1023B00010BD000008B50A2809D8DFE800F00610B3
:1023C0000E080808081010101000022008BD054B68
:1023D0008621054A054833F0C1F90020F6E70120BF
:1023E000F4E700BF8E700308A9700308F4700308B7
:1023F00038B50C46887FFFF7DDFF174BA58AE28AC8
:10240000586342EA054221695A64628BD963521BC0
:102410001A642568082D0ED19A611A6158620F4A14
:10242000207F42EA0062DA61E2681A620C4A59616E
:10243000D9601A6038BD0022D8611A61E1680A0AC1
:102440004809C1F3C40102F4784200F4FC6002437D
:102450000A439A63034AECE700B002400900010016
:10246000010202000102030008B50B280BD8DFE8C7
:1024700000F00612100A0A0A0A08080808080220D2
:1024800008BD0520FCE7054B6521054A054833F0EA
:1024900065F90020F4E70120F2E700BF8E70030821
:1024A00052710308F47003082DE9F04191F81D8082
:1024B0000C464046FFF7D8FFA77F05463846FFF792
:1024C000D3FF06463846FFF775FFA18A628B434B60
:1024D000521A1A649A61228B521A1A61E28A58635C
:1024E00042EA014221695A646268D963DA6020686D
:1024F000802828D0227F0FD8202866D0402864D09A
:1025000004281AD045EA0265344BB84545F4003535
:10251000DD6160D0324A44E0B0F5807F04D0B0F590
:10252000007FEFD12F4800E02F4840EA0262DA61D5
:10253000E2681A625E62596132E045EA026242F480
:102540000032DA61F6E7A068021DDA62227F45EA0E
:10255000026545F40035DD615E625961017841B183
:10256000012921D0214B4FF48871214A214833F0B1
:10257000F5F8DA69418822F47F42013922F010022D
:1025800042EA01220121DA61144BDA6942F02002A9
:10259000DA61DA699206FCD410229A600029B9D077
:1025A000154A1A60BDE8F081B2F1FF01DA6940888E
:1025B00022F47F4218BF0121013822F0100242EAC2
:1025C000002242F01002DA61DEE745EA0262034BC4
:1025D00042F40032B5E740F20122E2E700B00240E7
:1025E00001020100090002000A0002009C710308B8
:1025F000B6710308F470030801020200024B1B6865
:10260000586803685B691847F089012070B5044673
:102610000A4B0C30002625466022606026726672E6
:1026200045F8203B29461BF065F804F55A63EE6037
:1026300024359D42FBD1204670BD00BFFC710308CC
:10264000034B1A68D207FCD423229A60704700BF5C
:1026500000B0024030B5104C2568ED07FCD42325AE
:102660000904FF2BA56041F001014FF002056563ED
:102670006164E0630AD00949656241EA0363E3618A
:10268000074B22626061E060236030BDE561039B1F
:10269000A363044BF8E700BF00B00240090001004B
:1026A00001000200010003004069704790F84400F7
:1026B0007047036B23B9C06A003818BF0120704708
:1026C0000120704780687047043010B50C460FC871
:1026D00084E80F0010BD704708B5034A40F212218C
:1026E000024B034833F03AF8447203089398030806
:1026F0009F72030810B50446482132F0E8F82046DE
:1027000010BD00002DE9F0431C46436BADF51F7D65
:1027100005460E461746002B37D0002203A8DFF8E7
:10272000A890CDE9013212F021FE4FF4F47250214D
:10273000249024A80CF0CFFD3A46314624A80DF091
:1027400023FD012124A80CF0C1FE022324A88DF84A
:10275000D8300CF05CFFBDF898322B9ABDF89C6223
:102760009342A89F28BF1346419A964203EB430821
:10277000A7EB430728BF1646479B9E4209D824A8CB
:102780000CF0C6FE24A80CF0F3FD0DF51F7DBDE88E
:10279000F083012201A924A80CF082FF6B6B03EBEC
:1027A0000800984201D83C44E6E759789A78C90075
:1027B00009EA022201F4FC610A4313F8031B42EA0E
:1027C000D10224F8022BECE700F8FFFF0A4A02606E
:1027D0000022C0E90522C0E90722C0E90922C0E9B8
:1027E0000B22C0E90D12C0E90F2280F84420C0E995
:1027F0000322C0E9012270479075030810B40C460B
:1028000011461A46036B3BB1036C806BE41A2044FB
:102810005DF8044B33F066BAC06AF8E7036B10B595
:1028200073B1036C826BC91A5318525C98785C7848
:102830000004DB7840EA0420104340EA036010BD46
:10284000C36A5858FBE7036B43B1036CC91A836B27
:102850005A18585C527840EA02207047C36A585AA6
:102860007047000070B50446006B0D461646D8B19F
:10287000E36B934208D209230D4A65210D4884F881
:1028800044300D4B32F06AFF0368DB689847206BD9
:102890003246A16B03681B69984710B90D2384F871
:1028A0004430A06B256470BDE06A0844FBE700BFBC
:1028B0001C7303089F720308097303082DE9F8438A
:1028C000436904462BB9234BAA21234A234832F0FB
:1028D00045FF08228169FFF7C5FFA16943F2300671
:1028E00046F2643704312046FFF798FFA369184485
:1028F000A36A00F108029A4206D301230020636113
:10290000236AA361BDE8F8836369093008220133B3
:1029100020F0010120466361A161FFF7A3FFD4F815
:10292000189020464946FFF78EFF09F102018046C4
:102930002046FFF788FF09F1040105462046FFF70E
:102940006DFFB045D2D1BD42D0D10028CED00120FC
:10295000D8E700BF5E730308A77303089F720308DC
:102960002DE9F04F0446ADF51F7D8A461646816974
:1029700008229846FFF776FFA7692046391DFFF722
:102980004DFF07F10801024605462046FFF76AFFA2
:10299000636B074633B93C4B40F2AB113B4A3C48B2
:1029A00032F0DCFE002203A8CDE9013212F0DEFC99
:1029B0004FF4F4725021249024A80CF08CFC2A4689
:1029C000394624A80DF0E0FB012124A80CF07EFD7F
:1029D000022324A88DF8D8300CF019FEBAF9025061
:1029E000479BAB4229D3BAF900904FEA4808BAF89E
:1029F00004702B9B08FB05664F44BAF80250DFF8C1
:102A000094B03FB29F4228BF1F46BAF8063009EB88
:102A1000490A1D44419B2DB29D4228BF1D46479B3C
:102A2000AB4210D324A80CF073FD24A80CF0A0FC3A
:102A300001200DF51F7DBDE8F08F012201A924A81A
:102A40000CF02EFECCE7012201A924A80CF028FEF0
:102A5000626B49465244B94202F1030201D3464433
:102A6000DDE712F8020C12F8013CC0000BEA032368
:102A700000F4FC60034312F8030C43EAD00326F889
:102A800011300131E7E700BFDA730308307403083F
:102A90009F72030800F8FFFF0129036838BF012176
:102AA000DB6A70B50D4604469847A84204D22368F5
:102AB0002046DB6A984705466B1EE66910222046D1
:102AC00006EB031606F10801FFF7CCFE06F1100134
:102AD0002046FFF7A3FE236A043B0344C4E90553E1
:102AE00070BD0000002148222DE9F04104468161BB
:102AF00080F84410FFF7B6FEA6690423624A314607
:102B00002046FFF77BFE40B10323604AF22184F8A0
:102B100044305F4B5F4832F021FE06F10801042388
:102B20005D4A2046A161FFF769FE30B10423574A90
:102B3000FA2184F84430594BECE706F10C010423E8
:102B4000574A2046A161FFF759FE074638B10523D1
:102B50004E4A40F2011184F84430524BDAE706F154
:102B600010012046FFF75AFE054620B94E4B40F2B1
:102B70000711464ACEE706F1140804234B4A2046C3
:102B80004146FFF73BFE002849D0062384F8443035
:102B90000423474A06F118012046FFF72FFE0028BC
:102BA0003FD0072384F844304544424F0C2220464E
:102BB0002946FFF757FE05F1080604233A4620464A
:102BC0003146FFF71BFE94F84430002848D0002B14
:102BD00048D1A36AAB4249D805F10C03043520461D
:102BE000A3612946FFF71AFE304429466062204659
:102BF000FFF714FE0644042220463146FFF732FE5A
:102C000004232D4A31462046FFF7F8FD002838D12D
:102C10000123E6616361A3692362BDE8F0810127B6
:102C2000B6E7002FC0D006F120012046FFF7F6FDE1
:102C30004FF47A7306F13001B0FBF3F06060204688
:102C4000FFF7ECFD06F14001A0602046FFF7E6FD2E
:102C500006F14401E0602046FFF7E0FD2061A3E7B4
:102C6000002BB9D00A2384F84430D6E7291D20462A
:102C7000FFF7D4FD85190C2220462946FFF7F2FD07
:102C800099E70B23EFE700BF8A740308A8740308D1
:102C90008F7403089F720308D5740308DA7403085D
:102CA000F2740308F77403080D7503081975030817
:102CB0001E7503082375030828750308C0E90A2157
:102CC00000220263FFF70EBF10B50023044608463A
:102CD000E3620B6821639B689847A0622046BDE8C9
:102CE0001040FFF7FFBEF0B4069FBDF81050BDF8CE
:102CF000146032B12BB10495CDE90567F0BCFFF744
:102D000001BDF0BC704700002DE9F04F99464369C2
:102D100085B004460F4690462BB9294B7721294AA6
:102D2000294832F01BFD08228169FFF79BFDA66947
:102D300020463146FFF787FDB11C83462046FFF74A
:102D400082FD311D82462046FFF768FD06F108012D
:102D5000A36A054642189A4226D243F230039B45A5
:102D600017D146F264339A4513D190B10246A1615E
:102D70002046FFF777FD0E9B01462A462046CDF8F8
:102D80000080CDE901933B46FFF7ADFF6369013356
:102D90006361A3692B4405B908330133626A23F0E8
:102DA00001039342A36109D1012301206361236AD6
:102DB000A36180F0010005B0BDE8F08F0020F8E7C6
:102DC0005E7303082D7503089F7203080120704786
:102DD0004020704700EB81100830704700EB8110F5
:102DE000083070470120704743F2B470704743F2D7
:102DF000B47303FB01000830704743F2B47303FB64
:102E0000010008307047012070471020704700EB28
:102E100001100830704700EB011008307047084679
:102E200002F080BB034B10B50446036019F0A8FA0A
:102E3000204610BD3876030810B50446FFF7F2FFB0
:102E40004821204631F043FD204610BD034B10B50C
:102E50000446036019F094FA204610BD0476030876
:102E600010B50446FFF7F2FF43F2BC71204631F083
:102E70002EFD204610BD0000034B10B50446036034
:102E800019F07EFA204610BDD075030810B504462F
:102E9000FFF7F2FF1821204631F019FD204610BD42
:102EA000094B10B50446036000F55F502830FFF76A
:102EB000B9FF04F12C00FFF7C9FF04F11400FFF77C
:102EC000DBFF204610BD00BF6C76030808B5024842
:102ED000FFF7E6FF08BD00BF9013002010B50446C1
:102EE000FFF7DEFF43F69011204631F0F0FC20465C
:102EF00010BD00002DE9F34101F0EAFF0024054672
:102F000001F0EAFF2346014622462846009423F0BA
:102F10000BFB274B274A2046274D1A6003F0A0F9E8
:102F2000264B274A27489A6023F066FA2B68BFF39E
:102F30005B8FDB0736D4284631F0CBFC90B3224CB4
:102F4000224F234B04F1140007F14C0604F12C0826
:102F500023606060C4F80880E760266119F012FA07
:102F60001C4B4046636119F00DFA1B4B3846E36277
:102F700019F008FA04F54053184A03F50360C3F842
:102F8000E82705F03BFE224607F14801304605F0F0
:102F90002BFE304602F0C6FA114832F0FDFB2846FF
:102FA00031F0A3FC0F4802B0BDE8F041FFF76CB868
:102FB000548A0120400500208C1300206005002069
:102FC000440500200800002090130020784B0020CA
:102FD0006C760308D0750308047603083876030876
:102FE000CD2E0008C404002070470000014819F0ED
:102FF000D8BC00BFC404002070B5244E244B254C1F
:103000003046254D2360FFF701FB284627F06CFD75
:10301000224821F0C1FA224B00224FF4807121484E
:103020001A8683F858205A6683F870205A67DC6045
:10303000C3E912121C49C3E91A121C4999671C49B9
:103040000B604FF4F07101801A4801804FF48871D1
:103050001948C3E90422C3E90622C3E90822C3E9E7
:103060000A22C3E90E22C3E91022C3E91422C3E9EC
:103070001722C3E901650180104883F834200180DC
:103080000F490A700F4A1A6070BD00BFE8050020A2
:10309000186D0308881300206005002044050020F7
:1030A000C4040020E48901200100000100000101A6
:1030B000F0890120EA890120E6890120EC890120BC
:1030C000E8890120A46E03080148FFF757B900BF43
:1030D000E80500200020704781807047C18070475C
:1030E0000181704741817047704770477047704752
:1030F000704710B4C4880368121B84885B6D091B79
:1031000012B25DF8044B09B218474FF6FF73838182
:103110004FF0FF3303621368C361106070470020F3
:1031200070478B88838001207047704780F8261095
:10313000704790F826007047002210B5B1F908409A
:10314000B1F90A10028042808480C18010BD002243
:10315000028042808280C28070470177704780ED94
:10316000080A704780F82410704780F825107047CF
:1031700001207047983070478C307047843070471A
:1031800070470000034B902283F85A2383F858239A
:10319000704700BF00E100E0094A0A49D3680A48C5
:1031A000C3F30A03013B9BB20B801169C1F30A010F
:1031B000013901801364536B43F00103536370477B
:1031C00000680140224D0020204D0020014BD3F823
:1031D000AC00704700680140024B0122C3F8AC10FC
:1031E0005A62704700680140124A5369DB0370B5A8
:1031F0001ED50023C2F88430BFF34F8FD2F8803041
:1032000043F6E074C3F3C900C3F34E335B0103EA32
:103210000406014646EA81750139C2F87452F9D2B2
:10322000203B13F1200FF2D1BFF34F8FBFF36F8F0D
:1032300070BD00BF00ED00E0704770477047382355
:10324000002201FB0333C25490F838300BB9036CF1
:1032500083647047704780F84C10704710B504467F
:103260002C2131F034FB204610BD10B50446582106
:1032700031F02DFB204610BD10B50446BC2131F0C5
:1032800026FB204610BD000038B5044619F075FB3A
:1032900023685D6E20F052F801462046A847236857
:1032A000084A2046D3F888500023A2F57F31A8476A
:1032B000054B064A5A60064A1A649A644FF4FF2284
:1032C0005A6438BD00F807C0E44D00203C4E002091
:1032D00000F40BC019F038BB19F042BB19F0FEBA6C
:1032E00019F06DBC90F8252012B103685B6918478E
:1032F0007047000008B531B1044B40F29711044A01
:10330000044832F02BFA90F8390008BD78760308AB
:103310008C7603081978030810B531B1064B40F2DA
:103320009111064A064832F019FA406811460368BE
:10333000BDE810401B6B1847787603085B780308DC
:103340001978030808B529B1034B7A21034A0448C8
:1033500032F004FA006908BD787603080C7A030895
:103360001978030808B529B1054B8321054A064899
:1033700032F0F4F941618160C0E9063208BD00BF56
:1033800078760308C47B03081978030810B504464F
:1033900029B1274BA421274A274832F0DFF9052A13
:1033A00034D8DFE802F003292F34393E406803683F
:1033B0001B69984750B34FF0FF31606D09F03CFD39
:1033C0000023012294F83E1084F83B3084F8392021
:1033D000A360636101B1226284F83E306362E36AF4
:1033E0002BB90123206D84F83A3009F015FE606D89
:1033F000BDE8104009F050BD002380F8393084F852
:103400003E3003E0036200238360436110BD03622A
:10341000002383604361F2E7002380F83930012301
:10342000EDE7003B18BF012380F83D30EEE700BF19
:1034300078760308837D03081978030890F825201F
:103440001AB190F8242002B11860704770B5044694
:10345000164629B1314BE721314A324832F07EF924
:1034600090F8393033B1304B1B6893F86B204369C7
:1034700013444361E36A002B4DD0E169D4E905327E
:103480005343A2684A43934220D2236A002B42D07E
:103490004FF0FF31606D09F0CFFC236A0BB10023C0
:1034A000E362E36AFBB90125606D09F0F5FC94F86D
:1034B00039300BB9236A3BB1E36A2BB90123206D84
:1034C00084F83A3009F0A8FD284670BD94F84C0005
:1034D0000028DDD09B1AB3FBF1F2994298BF02F1AC
:1034E000FF326262D4E7002294F83C50A362304677
:1034F000E262E2682261A2680132A260336333684B
:103500005B699847002DCED194F83D30002BCBD18C
:1035100084F83950C8E70125C9E700BF7876030869
:103520005A7F030819780308F0890120034B4FF0F4
:1035300080629A604FF080729A60704700E100E00C
:10354000084B4FF08062C3F88820BFF34F8FBFF362
:103550006F8F4FF08072C3F88820BFF34F8FBFF397
:103560006F8F704700E100E038B5034690F83800EF
:1035700038BB01229860D8609A634FF4807258611A
:103580009A874FF4F0729861D86118625862986215
:10359000D8621863586383F83E00CA864FF4887275
:1035A00081F834000A8708639A6C186102F5FF24D9
:1035B000D3E9101529448C420AD9084B5821084AEE
:1035C00003E0084B40F2F511074A084832F0C6F80C
:1035D0001A6302F57F329C645A6338BDB8820308CF
:1035E000F8820308FE8003082E8103081978030877
:1035F000002370B5124E05468380124B036033687A
:1036000093F858200AB1D86C00B998680368DB6A4F
:1036100098473368B0FA80F4D86C640930B1036815
:10362000DB6A9847002808BF44F001042CB9064B18
:103630002C21064A064832F091F8284670BD00BF9A
:10364000F0890120A08503089E840308FC840308F8
:103650003585030870B5244E3568BFF35B8F15F0D0
:1036600001053FD1304631F034F900283AD01F4CE3
:103670001F4B04F134002561E584A562A585C4E9EA
:103680000035C4E9025521F0E6F904F158001BF0B9
:1036900031FC184B2046A365174B40F8843BFFF7DD
:1036A000A7FF164B1648C4F884302433C4F8905052
:1036B000C4F88C306423C4F89C50C4F8A850C4E902
:1036C00028350023C4F8AC30C4F8B030C4F8B430A6
:1036D000C4F8B8300B4BC4F8983032F05DF830467F
:1036E00031F003F9014870BD244D0020284D002021
:1036F00054C40308C08503083886030808C40308B7
:1037000081310008E8C3030810B5144C236823B3C3
:10371000134B144A1B6C11888B4213D1124B19881E
:1037200007F098FC226892F86A30013382F86A3018
:10373000FEF7D4FD206819F06DFE0020BDE81040B2
:10374000FEF7D2BB07F086FC206803681B6A984727
:103750000020BDE81040FEF7F7BB10BDF089012046
:1037600000680140224D0020204D00202DE9F74344
:1037700004464FF4707894F83A304FF0FF31002B44
:1037800031D0606D09F058FB276BA36ABB4200D1B2
:10379000676B266A656856B32B68314628465B6AB4
:1037A00098470023236284F83B30606D09F074FB76
:1037B0002B684FF4F0723946CDF8008028465E69D8
:1037C0004FF48873B0474FF0FF310646606D09F043
:1037D00033FB94F83B30E3B1002384F83B30606D59
:1037E00009F05AFBC7E7206D09F0DAFBC3E7636A0B
:1037F000002BDAD02B682846D3E909939847616AF1
:1038000001442846C847A368626A66621344A360FD
:10381000CBE7E7625EB12B6828469B6A9847013880
:103820000023E06084F83C6084F83A30D7E7012058
:10383000F6E70000014808B5FFF798FFE44D0020C7
:103840000368042270B504465E6A00230D46B04743
:103850004FF0FF31606D09F0EFFA382303FB0542AA
:10386000D16A09B10021D16203FB0545012385F826
:103870003B30002385F83930606DBDE8704009F0B9
:103880000BBB38B500EB810304460D461146586862
:103890000368DB68984729462046FFF7D1FF38BD0B
:1038A00070B50D461146044600EB8502506802686B
:1038B00096681A46B04729462046FFF7C1FF70BDFB
:1038C00038B5164900251648FEF780FF154C164BF3
:1038D00001202A46294623604FF48073A564A387FC
:1038E00084F84C0084F83E50C4E91055C4E91455DE
:1038F000C4E90155C4E90355C4E90555C4E90755B0
:10390000C4E90955C4E90B55C4E90D5509F0F0FAAD
:103910002065284609F04EFA606538BD844E0020C7
:103920003C4E0020E44D002084860308806A7047E6
:103930007047704770477047704780F82C10704789
:1039400010B40368046BD3F8A430624361435DF89C
:10395000044B1847D0ED0C7A0368F8EEE77A10B400
:1039600020EE270AD3F8A440B5EEC00AF1EE10FA13
:103970001ADBB6EE007A30EE070ABDEEC07A17EE1B
:10398000101A60EEA70AF5EEC00AF1EE10FA1EDB7F
:10399000F6EE007A70EEA70AFDEEE07A17EE902AB6
:1039A00023465DF8044B1847BDEEC07AF8EEC76AAF
:1039B00017EE103A013B30EE660AF7EE086A30EE79
:1039C000260ABDEEC00A10EE101A1944D9E7FDEE22
:1039D000E07AB8EEE77A17EE903A013B70EEC70A4C
:1039E000B7EE087A70EE870AFDEEE00A10EE902A34
:1039F0001A44D5E710B40368046BD3F8B0306243BF
:103A00005DF8044B1847D0ED0C7A0368F8EEE77ABE
:103A100010B427EE800AD3F8B040B5EEC00AF1EE3C
:103A200010FA0BDBF6EE007A30EE270AFDEEC07AD4
:103A300017EE902A23465DF8044B1847FDEEC07A36
:103A4000B8EEE77A17EE903A013B30EE470AB7EE50
:103A5000087A30EE070ABDEEC00A10EE102A1A44AA
:103A6000E8E710B40368446BD3F8BC3062436143A9
:103A70005DF8044B1847D0ED0D7A0368F8EEE77A4D
:103A800010B420EE270AD3F8BC40B5EEC00AF1EE20
:103A900010FA1ADBB6EE007A30EE070ABDEEC07AF5
:103AA00017EE101A60EEA70AF5EEC00AF1EE10FA52
:103AB0001EDBF6EE007A70EEA70AFDEEE07A17EE56
:103AC000902A23465DF8044B1847BDEEC07AF8EE05
:103AD000C76A17EE103A013B30EE660AF7EE086A45
:103AE00030EE260ABDEEC00A10EE101A1944D9E7CE
:103AF000FDEEE07AB8EEE77A17EE903A013B70EE11
:103B0000C70AB7EE087A70EE870AFDEEE00A10EEFB
:103B1000902A1A44D5E710B40368446BD3F8C03038
:103B200062435DF8044B1847D0ED0D7A0368F8EE58
:103B3000E77A10B427EE800AD3F8C040B5EEC00A89
:103B4000F1EE10FA0BDBF6EE007A30EE270AFDEE0E
:103B5000C07A17EE902A23465DF8044B1847FDEE15
:103B6000C07AB8EEE77A17EE903A013B30EE470A9A
:103B7000B7EE087A30EE070ABDEEC00A10EE102A42
:103B80001A44E8E7D0F82C31026B002B07DB02EB7C
:103B9000430090FBF2F000EBD070401070476FF0E4
:103BA000010101FB0320013890FBF2F000EBD07023
:103BB000401040427047D0ED4B7A90ED0C0AF8EE81
:103BC000E77AB8EEC00A87EE800A7047D0F82C0179
:103BD0007047D0F83031026B002B07DB02EB43005B
:103BE00090FBF2F000EBD070401070476FF00101D5
:103BF00001FB0320013890FBF2F000EBD070401085
:103C000040427047D0ED4C7A90ED0C0AF8EEE77A1E
:103C1000B8EEC00A87EE800A7047D0F830017047CE
:103C2000D0F83431426B002B07DB02EB430090FBF2
:103C3000F2F000EBD070401070476FF0010101FB13
:103C40000320013890FBF2F000EBD07040104042AE
:103C50007047D0ED4D7A90ED0D0AF8EEE77AB8EEA8
:103C6000C00A87EE800A7047D0F834017047D0F858
:103C70003831426B002B07DB02EB430090FBF2F084
:103C800000EBD070401070476FF0010101FB032082
:103C9000013890FBF2F000EBD070401040427047CA
:103CA000D0ED4E7A90ED0D0AF8EEE77AB8EEC00A44
:103CB00087EE800A7047D0F838017047036870B506
:103CC0000446D3F888300D46164698472368324696
:103CD00029462046D3F89030BDE870401847036865
:103CE000D3F8943018470368D3F8D43018470368E2
:103CF000D3F8E03018470368002A10B4D3F8A43092
:103D0000046B0EDB04EB420292FBF4F101EBD17188
:103D10004910B0F91E215DF8044B013A0A444942AA
:103D200018476FF0010101FB0241013991FBF4F1E9
:103D300001EBD17149104942EBE70368D3F83C31FC
:103D40001847026B03685143D3F84831184703689A
:103D5000D3F844311847D0ED0C7A0368F8EEE77ACF
:103D6000D3F8482127EE800AB5EEC00AF1EE10FA2A
:103D700008DBF6EE007A30EE270AFDEEC07A17EE89
:103D8000901A1047FDEEC07AB8EEE77A17EE903A37
:103D9000013B30EE470AB7EE087A30EE070ABDEE77
:103DA000C00A10EE101A1944EBE7C0F83C11704736
:103DB0000368D3F850311847036810B5D3F85C3165
:103DC000044698470028236B07DB03EB400090FB79
:103DD000F3F000EBD070401010BD6FF0010202FB59
:103DE0000030013890FBF3F000EBD07040104042FF
:103DF000F2E70368D3F858311847036810B5044652
:103E0000D3F85C31984707EE900A94ED0C0AF8EE6F
:103E1000E77AB8EEC00A87EE800A10BDD0F83C0100
:103E20007047026B03685143D3F868311847D0EDEF
:103E30000C7A0368F8EEE77AD3F8682127EE800A57
:103E4000B5EEC00AF1EE10FA08DBF6EE007A30EEBD
:103E5000270AFDEEC07A17EE901A1047FDEEC07AE1
:103E6000B8EEE77A17EE903A013B30EE470AB7EE2C
:103E7000087A30EE070ABDEEC00A10EE101A194497
:103E8000EBE7C0F840117047036810B5D3F8743100
:103E9000044698470028236B07DB03EB400090FBA8
:103EA000F3F000EBD070401010BD6FF0010202FB88
:103EB0000030013890FBF3F000EBD070401040422E
:103EC000F2E7036810B50446D3F87431984707EE5B
:103ED000900A94ED0C0AF8EEE77AB8EEC00A87EE85
:103EE000800A10BDD0F84001704703680029026BBA
:103EF000D3F8843110B504460EDB02EB410191FB8F
:103F0000F2F101EBD171491009B220469847D4E98A
:103F10004F2302FB003010BD6FF0010000FB0121B8
:103F2000013991FBF2F101EBD17149104942EBE704
:103F3000006B7047406B70470368D3F848311847EF
:103F40000368D3F85C311847026B03685143D3F818
:103F500014311847036870B5D3F818510446D0F8E7
:103F60004461D3F8803198472B4656F820102046FC
:103F7000BDE87040184703460846B3F91C21B3F961
:103F80001E11914207DBB3F94C31191891FBF2F382
:103F900002FB131108B2704748017047C1627047B5
:103FA000C06A70470120704770477047C06B18B1F6
:103FB0000368D3F8803018477047B2F81A1130B54B
:103FC000B2F91441B2F940502144B2F84220448081
:103FD000521A002185800180C28030BD10B5428018
:103FE000BDF90840BDF90C2004808280C38010BD5B
:103FF0000B680846D3F8D43018470B680846D3F846
:10400000E0301847B1F914017047B1F81431B1F834
:104010001A21B1F842001344C01A00B27047B1F936
:1040200016017047B1F81631B1F81821B1F8400007
:104030001344C01A00B270470B6808461146D3F803
:104040001431184730B5B2F91651B2F81841B2F828
:1040500040102C44B2F942200580091B0024C28084
:104060004480818030BD02808380BDF90020BDF98D
:1040700004304280C38070470B680846D3F8EC30A8
:1040800018470B680846D3F8F8301847B1F91601FD
:104090007047B1F81631B1F81821B1F84000134457
:1040A000C01A00B27047B1F914017047B1F8143169
:1040B000B1F81A21B1F842001344C01A00B2704797
:1040C0000B6808461146D3F81831184770477047F7
:1040D0007047704770477047704770477047704728
:1040E00030B444680346C2689B68551004EB620014
:1040F000D20748BF625930BC48BFD358184703465F
:10410000406830B19A681AB9D86800F00100704769
:104110000120704790F82D3080F8903080F85C30A6
:10412000704790F82D3080F85C30704710B5044629
:10413000342130F0CCFB204610BD10B5044664217C
:1041400030F0C5FB204610BD10B50446942130F078
:10415000BEFB204610BD10B50446402130F0B7FB31
:10416000204610BD10B50446402130F0B0FB20467B
:1041700010BD10B504464FF4387130F0A8FB20464E
:1041800010BD10B50446102130F0A1FB204610BD33
:1041900038B503460846D3E90C540B68D3F88C3085
:1041A0009847294602462046BDE838401BF0A8BA89
:1041B00038B503460846D3E90C540B68D3F894305D
:1041C0009847294602462046BDE838401BF098BA79
:1041D0000146343091F82C3013B162311CF0F6BC3A
:1041E0006031FBE710B50446683094F82C303BB1E1
:1041F00004F166011CF0EAFC2046FFF7E9FF10BD60
:1042000004F16401F6E70000034B10B504460360B7
:104210001DF0E2FB204610BD4C8C0308064B10B588
:10422000044603601DF0D8FB43F23431204630F0E1
:104230004EFB204610BD00BF4C8C030808B590F81B
:104240002C300BB1FFF74EF808BD10B50446006BDB
:1042500050B10368DB68984730B1206B2146036892
:10426000BDE810409B68184710BD00000A1E10B53D
:1042700003DBB0F91E41944206DC084B40F2396181
:10428000074A084831F06AFA0368D0F84441D3F885
:104290008031984754F8200010BD00BFBC86030849
:1042A000DF8603082E8703080B1E10B5044603DBC8
:1042B000B0F91E219A4206DC074B40F23361074AEF
:1042C000074831F04BFA0368D3F884319847D4E9B2
:1042D0004F2302FB003010BDBC8603088B87030808
:1042E0002E8703080B7970B504460D4690F82C60B4
:1042F0000BB916B170BD002EFCD0B3FA83F3204683
:104300005B0984F82C302368D3F88C3098472368F5
:1043100020465B699847002EECD02B79012BE9D120
:1043200023682046D3F88830BDE87040184700F570
:10433000B3501030814208B505D11EF0FFFFBDE833
:10434000084001F0FFB808BD074A02600022C0E93A
:104350000122C0E90322C0E90522C0E907224FF487
:1043600080728284704700BFFCCA0308036870B57E
:1043700004461B6B154698472368204629465B6B0D
:10438000BDE8704018470B882DE9F041A0F8643073
:10439000044613889046B0F90850A0F866301046DD
:1043A00022F0D6F8B4F90A30074605EBD57503EBD1
:1043B000D3734046C5F34F0507EBD777C3F34F06DA
:1043C00022F0FAF800EBD070A5EB6701A6EB6002D3
:1043D00004F1680009B212B2FFF7C8FF2368204653
:1043E000D3F88C30BDE8F0411847036870B5044637
:1043F0009B6B15469847236820462946DB6BBDE832
:104400007040184738B504461D46FFF7AFFFBDF9A9
:10441000102029462046FFF7E8FF38BD0B8870B50D
:104420000546A0F860301388044625F8623F284608
:1044300022F08EF80646284622F0BEF831460246A3
:104440002046FFF7D2FF23682046D3F88C30BDE822
:104450007040184710B504462622002131F03AFC7E
:104460002046FFF771FF044B20462360FF2384F8AA
:1044700026300023A36210BD5CC9030837B501AB29
:10448000154620F0A3FC00282A4601994FEA401463
:104490004FF0200004DB20F0B8FC204403B030BD16
:1044A00020F0B3FC201AF9E770B5B0F81A310E46C7
:1044B000B0F91441B0F842502344ED1A2DB22C4407
:1044C000691ED0E94D32013CD21AF01AFFF7D6FF2F
:1044D000C0EB441070BD38B504460D46B4F8163133
:1044E000B4F818110B44B4F84010C91AD0E94B02C3
:1044F00009B2121A281A0139FFF7C0FFB4F91631B0
:1045000000EB431038BD000010B504461AF0F2FC71
:10451000034B20462360022384F82C3010BD00BFDB
:10452000E0C7030838B504460D462622002131F0C5
:10453000D1FB2046FFF708FF064B204629462360A3
:104540002B88E384FF2384F828301CF03FFB2046AF
:1045500038BD00BF2CCA030810B504461AF0CAFCC7
:10456000002301220A212046E363616384F8382096
:10457000C4E90B32014B236010BD00BFE487030880
:1045800010B504461AF0B6FC002301220A21204689
:10459000E363616384F83820C4E90B32014B236084
:1045A00010BD00BF9C88030838B5642104461BF089
:1045B00043F80A4B00252046236001236322294645
:1045C000C4E94F3504F5A873C4E95135FFF7B8F9CC
:1045D000034B2046A4F84C51236038BD18C503088E
:1045E000548903082DE9F04F0446A5B0002520F0BA
:1045F000B7FDA246E04BE56304F198094AF8403B59
:104600005046FFF727FF04F16C03DC4F04F23C48EF
:1046100018461093FFF71EFF4846FFF7C5FF04F545
:104620005E7307F1240B04F5805618461193FFF7CB
:1046300093FF04F56E7318461293FFF7A1FF04F57C
:104640007E7318461393FFF75FFF04F585631846E2
:104650001493FEF7CDFFC4F82874C4F830B4404674
:10466000C4F83454FFF7A0FF04F21C7318461593E6
:10467000FFF772FF04F25C7318461693FFF780FF92
:1046800004F29C7318461793FFF73EFF04F2CC73B5
:1046900018461893FEF7ACFF04F5FC63C4F8CC771A
:1046A000C4F8D4B71846C4F8D8570493FFF77CFF72
:1046B00004F52C6318461993FFF74EFF04F5306399
:1046C00018461A93FFF75CFF04F5346318461B93F2
:1046D000FFF71AFF04F5376318461C93FEF788FFAF
:1046E00004F68433C4F8707BC4F878BB1846C4F869
:1046F0007C5B0593FFF758FF04F6646318461D932F
:10470000FFF72AFF04F6A46318461E93FFF738FF4D
:1047100004F6E46318461F93FFF7F6FE04F61473DD
:1047200018462093FEF764FF04F62873C4F8147F3C
:10473000C4F81CBF1846C4F8205F0693FFF734FF87
:1047400004F59053083318460793FFF705FF04F567
:104750009253083318460893FFF712FF04F5945359
:10476000083318460993FFF7CFFE04F59553183325
:1047700018460A93FEF73CFF04F59653C6F8B87244
:104780000C33C6F8C0B2C6F8C45218460293FFF7FD
:104790000BFF04F5AD530C3318460B93FFF7DCFE0B
:1047A00004F5AF530C3318460C93FFF7E9FE04F5FC
:1047B000B1530C3318460D93FFF7A6FE04F5B25320
:1047C0001C3318460E93FEF713FF04F5B353C6F8D7
:1047D0005C7601271033C6F864B6C6F868564FF603
:1047E000FF7B18460393FFF7AFFD4FF47F4323A9E8
:1047F000C6F89856A6F89C36614BC6F8A056C6F87F
:104800007036039B86F894763433ADF88CB0184636
:104810000F93FFF787FE2A4629460F98A6F8D0B6D1
:10482000A6F8D2B6FFF7A2FD0F99039817F0BCFDCA
:10483000544B23A9A6F8D4B6C6F87036039BA6F845
:10484000D6B66833ADF88CB04FF07F4B1846219345
:10485000FFF768FE219B0398194617F0A5FD04F5A4
:104860004053494A04F5B8504FF4E1510430C3E9CC
:10487000C924464AC3E9CB251DF0A4F84FF4887338
:104880002A462946504600934FF4F073FFF7BAFDCD
:104890005146201DC4F868B017F086FD4FF48873A8
:1048A0002A46109800934FF0FF314FF4F0734FF009
:1048B0003C0AFFF7A7FD1099201DC4F894B017F02B
:1048C00073FD4FF488732A462946484600934FF4F7
:1048D000EF73DFF8BCB0FFF795FD2A46394648462E
:1048E000FFF7ECF92B462A462946484600951AF070
:1048F00054FE2B462A462946484600951AF074FD78
:104900002946484640F6E442FFF7ABF80A23D4F8BC
:10491000A8133A46C4F8A4B303FB01F084F8B073BB
:10492000002884F89EA3B8BF4042C4F8AC031AF034
:10493000E7FE1199C4E9EA7048461AF060FDD4F820
:10494000E8134FF4AF72C4F8E4B384F8F07302FBD9
:1049500001F03A4684F8DEA30028B8BF4042C4F80C
:10496000EC031AF0CDFE1299C4E9FA7048461AF029
:1049700046FD41F2B8430DE04C8C030808C403081F
:10498000F08A0308908B0308348C03082F43000837
:10499000C59714FFC4F834B44FF0020BA4F83834B0
:1049A0004846149B1399C4F8203484F824B41AF0B0
:1049B00026FD4946201DDFF8CC9417F0F5FC4FF496
:1049C00088714FF4EF732A46404600912946FFF75D
:1049D00019FD2A4639464046FFF770F92B462A460C
:1049E0002946404600951AF0D8FD2B462A4629460E
:1049F000404600951AF0F8FC2946404640F6E4424D
:104A0000FFF72FF80A23D4F84C173A46C4F8489712
:104A100003FB01F084F85477002884F842A7B8BF5C
:104A20004042C4F850071AF06BFE1599C4F85007BD
:104A30004046C4F84C771AF0E2FCD4F88C174FF4D7
:104A4000AF72C4F8889784F8947702FB01F03A4675
:104A500084F882A70028B8BF4042C4F890071AF033
:104A60004FFE1699C4F890074046C4F88C771AF0A8
:104A7000C6FC42F2E97317994046A4F8DC37189B4C
:104A8000C4F8D8974FF00A09C4F8C43784F8C8B7F7
:104A90001AF0B5FC4146201DDFF8EC8317F084FCCA
:104AA0004FF4887140F2DF132A460498009129469A
:104AB000FFF7A8FC2A4639460498FFF7FFF82B4673
:104AC0002A462946049800951AF067FD2B462A4687
:104AD0002946049800951AF087FC2946049840F668
:104AE000E442FEF7BEFFD4F8F01A3A46C4F8EC8A66
:104AF00009FB01F084F8F87A002884F8E6AAB8BF28
:104B00004042C4F8F40A1AF0FBFD1999C4F8F40AFB
:104B1000C4F8F07A04981AF072FCD4F8301B4FF401
:104B2000AF72C4F82C8B84F8387B02FB01F03A4654
:104B300084F826AB0028B8BF4042C4F8340B1AF002
:104B4000DFFD1A99C4F8340BC4F8307B04981AF0CE
:104B500056FC4FF2E2731B99A4F8803B1C9B04980F
:104B6000C4F8683BC4F87C8B84F86CBB1AF047FC33
:104B70000499201DDFF8148317F016FC4FF4887396
:104B80002A4629460598009340F2DF13FFF73AFCC6
:104B90002A4639460598FFF791F82B462A462946BA
:104BA000059800951AF0F9FC2B462A4629460598E7
:104BB00000951AF019FC2946059840F6E442FEF7E4
:104BC00050FFD4F8941E3A46C4F8908E09FB01F0C9
:104BD00084F89C7E002884F88AAEB8BF4042C4F8AE
:104BE000980E1AF08DFD1D99C4F8980EC4F8947EA5
:104BF00005981AF004FCD4F8D41E4FF4AF72C4F830
:104C0000D08E84F8DC7E02FB01F03A4684F8CAAE0E
:104C10000028DFF87C82B8BF4042C4F8D80E1AF0F2
:104C20006FFD1E99C4F8D80EC4F8D47E05981AF00A
:104C3000E6FB924B1F99C4F8203F4FF2FF330598D3
:104C4000A4F8243F209B84F810BFC4F80C3F1AF04E
:104C5000D6FB0599201D17F0A7FB4FF488732A4651
:104C60003946069800934FF4EF73FFF7CBFB2A46C3
:104C700039460698FFF722F82B462A462946069819
:104C800000951AF08AFC2B462A462946069800957C
:104C90001AF0AAFB2946069840F6E442FEF7E1FE28
:104CA000D6F838123A46C6F8348209FB01F086F885
:104CB0004072002886F82EA2B8BF4042C6F83C02D7
:104CC0001AF01EFDC6E98E70DDE906011AF097FBA9
:104CD000D6F878124FF4AF72C6F8748286F88072F4
:104CE00002FB01F03A4686F86EA20028B8BF4042A7
:104CF000C6F87C021AF004FD0899C6E99E70069871
:104D00001AF07DFB4FF686130999A6F8C8320A9B64
:104D10000698C6F8B032C6F8C48286F8B4B21AF063
:104D20006EFB0699201DDFF86C8117F03DFB4FF4F8
:104D300088732A463946029800934FF4EF73FFF7C1
:104D400061FB2A4639460298FEF7B8FF2B462A46F1
:104D50002946029800951AF020FC2B462A4629463F
:104D6000029800951AF040FB2946029840F6E4426A
:104D7000FEF777FED6F8DC153A46C6F8D88509FB6B
:104D800001F086F8E475002886F8D2A5B8BF404245
:104D9000C6F8E0051AF0B4FC0B99C6F8E005C6F8B1
:104DA000DC7502981AF02BFBD6F81C164FF4AF7284
:104DB000C6F8188686F8247602FB01F03A4686F893
:104DC00012A60028B8BF4042C6F820061AF098FC88
:104DD0000C99C6F82006C6F81C7602981AF00FFB4C
:104DE00049F6BF030D99A6F86C360E9B0298C6F8DB
:104DF0005436C6F8688686F858B61AF000FB029951
:104E0000201D17F0D1FA032323AA22A90398ADF895
:104E10008830ADF88CB0FFF701FB2A4629460F9881
:104E2000FFF7A4FA072323AA22A9ADF888300523A7
:104E30000398ADF88C30FFF7A6FA114B2A46394695
:104E40000398C6F8DC3604F54C5386F89D56243397
:104E500086F8005786F8CC56C6F8A0364FF488730B
:104E6000009340F2DF13FFF7CDFA201D039917F0EE
:104E70009BFA204625B0BDE8F08F00BFFF7DF6FF0E
:104E80000F000D004AFF26FF17FFF0FF006DFCFF2B
:104E90003030FFFFFF1499FF704710B5044604211E
:104EA0002FF015FD204610BD012908B506D00229B6
:104EB00008D059B901F020FA006808BD01F01CFAC9
:104EC0004068FAE701F018FA8068F6E70020F4E796
:104ED000004870478C8C03080820704713B50024E5
:104EE00051B1036801AA01948DF803409C680DF14B
:104EF0000303A04702B010BD0846FBE7C089704716
:104F0000008A7047C088704780887047807A00F0B8
:104F10007F007047807AC00970470020704700000A
:104F20009FED010A704700BF00000000704710B5F8
:104F3000044608212FF0CBFC204610BD7047704777
:104F400000F598730868496803C370477047704755
:104F50004160704770470000064BC0F84801C0F838
:104F60004C310023C0F8503100F5A273C0F8403135
:104F7000704700BFC9510008012303727047704792
:104F800070477047704710B441680346C2689B6819
:104F9000541001EB6200D20748BF0A595DF8044B78
:104FA00048BFD35818470346406830B19A681AB9C9
:104FB000D86800F0010070470120704710B5044622
:104FC0000C212FF084FC204610BD10B504461021A2
:104FD0002FF07DFC204610BD10B504464FF4AE7195
:104FE0002FF075FC204610BD10B5044640212FF06F
:104FF0006EFC204610BD10B5044640212FF067FC22
:10500000204610BD10B51EF099F90368BDE81040A8
:10501000DB6B1847054B01461B782BB1406818B174
:1050200003680C315B6E1847704700BFEF890120A1
:10503000054B01461B782BB1406818B103680C3151
:105040005B6E1847704700BFEF890120037A70B587
:105050000546BBB940680368DB69984704463CB91C
:10506000686805F10C010368BDE870401B6E1847C5
:10507000A18820466B8FC91A236809B21B6B984719
:10508000A469ECE770BD037A70B50546BBB940680A
:105090000368DB69984704463CB9686805F10C0170
:1050A0000368BDE870401B6E1847A18820466B8FCF
:1050B000C91A236809B21B6B9847A469ECE770BD55
:1050C00010B50446D0F8400158B10368DB68984732
:1050D00038B1D4F8400103689B6898470023C4F8AE
:1050E000403110BD70B5044690F83900013094F895
:1050F0003830C0B2984284F8390005D901232372B0
:10510000002384F8393070BDB4F93A20002120F032
:10511000D9F9C30706D500284FF6FF73C8BF01238E
:10512000184400B2238AC01AA08760680368DB694C
:10513000984705462DB960680368BDE870405B6913
:105140001847A9882846A38F19442B6809B21B6BFE
:105150009847AD69EEE770B5044690F83900013024
:1051600094F83830C0B2984284F8390005D9012348
:105170002372002384F8393070BDB4F93A2000213D
:1051800020F0A0F9C30706D500284FF6FF73C8BF6B
:105190000123184400B2238AC01AA08760680368FC
:1051A000DB69984705462DB960680368BDE8704023
:1051B0005B691847A9882846A38F19442B6809B250
:1051C0001B6B9847AD69EEE72DE9F14FD0E9556AC1
:1051D0000746B06803681B6A984743F2B373984266
:1051E00005D8444BA321444A444830F0B7FA7068CC
:1051F00003681B6A98470F2803D8414BA4213E4AF5
:10520000F2E7F06803681B6A98470B2803D83D4B08
:10521000A521394AE8E7DFF8F4901EF08FF8043052
:105220001EF0B1F8D9F8000010B10368DB689847A8
:10523000D9F8000010B103681B689847DFF8D080E8
:10524000D8F8000010B103685B699847D7F83C01B3
:1052500010B103685B689847D8F8000010B1036884
:105260001B689847D7F83C0110B103689B689847C2
:10527000F06800214FF0000B03685B6A9847224BEF
:105280000446C0F804B080F808B059460360B0681E
:1052900003685B6A9847054603F00AFF7068594641
:1052A00003685B6A98470646294603F0DFFE331D14
:1052B000C7F83C612846C9F80040C8F80050CAF851
:1052C00000302B68C6F808A0DB68EE6398473368A7
:1052D00030461B6898472146284620F0EDF82368A1
:1052E00020461B699847236820465B6901B0BDE8EA
:1052F000F04F18473C8D0308CA8D0308968E0308AB
:10530000DD8E0308808F0308C0970308388A0120C8
:10531000348A01202DE9F74FD0E9556A0746B06875
:1053200003681B6A984743F2B373984205D8544BFD
:10533000A321544A544830F011FA706803681B6A7C
:1053400098470F2803D8514BA4214E4AF2E7F06842
:1053500003681B6A98473F2803D84D4BA521494A4B
:10536000E8E7DFF83C911DF0E9FF04301EF00BF890
:10537000D9F8000010B10368DB689847D9F800003D
:1053800010B103681B689847DFF81881D8F800004F
:1053900010B103685B699847D7F83C0110B1036806
:1053A0005B689847D8F8000010B103681B689847FD
:1053B000D7F83C0110B103689B689847F06800215A
:1053C00003685B6A98470022324B054642600446F8
:1053D000027245F80C3B28461AF014FF14230022F1
:1053E00023872D4BA2871B78002B35D101232372F5
:1053F000B068002103685B6A9847054603F058FED1
:105400007068002103685B6A98470646294603F0E6
:105410002DFE331DC7F83C612846C9F80040C8F886
:105420000050CAF800302B68C6F808A0DB68EE63AD
:105430009847336830461B6898472146284620F035
:105440003BF8236820461B699847236820465B6920
:1054500003B0BDE8F04F1847104B1146DFF848B0D5
:105460002846B3F900300093BBF90030FEF7CAFFBD
:1054700028461AF042FEBBF800306387B8E700BF49
:105480003C8D030823900308968E0308DD8E0308E5
:10549000808F030808980308EF890120E68901201E
:1054A000388A0120348A0120E4890120044B1B68DA
:1054B00093F858200AB1D86C00B99868704700BFBB
:1054C000F0890120F8B5044617460E461DF0FCFF92
:1054D000104B00251C6029460F4B23600F4BC4E97D
:1054E00051350F4B1868C4E953550368C4E94F554B
:1054F0009B68C4E955769847284600F0B1FEFFF74F
:10550000D5FF27F022F9FFF7D1FF27F099F92046C0
:10551000F8BD00BF448A01206C9703085497030824
:10552000F0890120064BC0F84801C0F84C31002337
:10553000C0F8503100F5A273C0F84031704700BF89
:10554000C9510008064BC0F84801C0F84C3100238F
:10555000C0F8503100F5A273C0F84031704700BF69
:1055600015530008064BC0F84801C0F84C31002321
:10557000C0F8503100F5A273C0F84031704700BF49
:105580000D5E0008064BC0F84801C0F84C310023FE
:10559000C0F8503100F5A273C0F84031704700BF29
:1055A000D15C0008064BC0F84801C0F84C3100231C
:1055B000C0F8503100F5A273C0F84031704700BF09
:1055C000995B0008064BC0F84801C0F84C31002335
:1055D000C0F8503100F5A273C0F84031704700BFE9
:1055E000615A0008064BC0F84801C0F84C3100234E
:1055F000C0F8503100F5A273C0F84031704700BFC9
:1056000029590008064BC0F84801C0F84C31002366
:10561000C0F8503100F5A273C0F84031704700BFA8
:10562000F1570008064BC0F84801C0F84C31002380
:10563000C0F8503100F5A273C0F84031704700BF88
:10564000B956000803685B6A18470000F7B5164BA7
:1056500000260546044646600F46067245F80C3B98
:1056600028461AF0CFFD114B84F838701B7884F867
:105670003960A68723B901232372204603B0F0BD09
:105680000B4B32460B4F3146B3F90030284600939E
:10569000B7F90030FEF7B6FE28461AF02EFD3B881B
:1056A0005B426387E9E700BFE4970308EF890120C5
:1056B000E6890120E48901202DE9F047D0E9556A07
:1056C0000746B06803681B6A9847B0F5045F05D2C7
:1056D000404BA321404A414830F040F870680368CD
:1056E0001B6A98470F2803D83D4BA4213A4AF2E79A
:1056F000F06803681B6A98473F2803D8394BA521F7
:10570000354AE8E7DFF8E0901DF018FE04301DF0A0
:105710003AFED9F8000010B10368DB689847D9F861
:10572000000010B103681B689847DFF8C080D8F804
:10573000000010B103685B699847D7F83C0110B1CD
:1057400003685B689847D8F8000010B103681B68CD
:105750009847D7F83C0110B103689B68984700212F
:10576000F068FFF76FFF14210446FFF76FFFB06882
:10577000002103685B6A9847054603F02DFC7068BA
:10578000002103685B6A98470646294603F002FC3D
:10579000331DC7F83C612846C9F80040C8F80050DE
:1057A000CAF800302B68C6F808A0DB68EE6398479B
:1057B000336830461B689847214628461FF07CFE18
:1057C000236820461B699847236820465B69BDE82B
:1057D000F04718473C8D030802910308968E030892
:1057E000DD8E0308808F0308388A0120348A012067
:1057F0002DE9F047D0E9556A0746B06803681B6A8F
:105800009847B0F5045F05D2404BA321404A414878
:105810002FF0A4FF706803681B6A98470F2803D80D
:105820003D4BA4213A4AF2E7F06803681B6A9847A7
:105830003F2803D8394BA521354AE8E7DFF8E09047
:105840001DF07CFD04301DF09EFDD9F8000010B164
:105850000368DB689847D9F8000010B103681B683B
:105860009847DFF8C080D8F8000010B103685B6982
:105870009847D7F83C0110B103685B689847D8F89F
:10588000000010B103681B689847D7F83C0110B1BD
:1058900003689B6898470021F068FFF7D3FE142146
:1058A0000446FFF7D3FEB068002103685B6A98479F
:1058B000054603F047FB7068002103685B6A984760
:1058C0000646294603F01CFB331DC7F83C612846F9
:1058D000C9F80040C8F80050CAF800302B68C6F874
:1058E00008A0DB68EE639847336830461B6898472A
:1058F000214628461FF0E0FD236820461B69984793
:10590000236820465B69BDE8F04718473C8D0308D3
:10591000E9910308968E0308DD8E0308808F030843
:10592000388A0120348A01202DE9F047D0E9556AF0
:105930000746B06803681B6A9847B0F5045F05D254
:10594000404BA321404A41482FF008FF706803688C
:105950001B6A98470F2803D83D4BA4213A4AF2E727
:10596000F06803681B6A98473F2803D8394BA52184
:10597000354AE8E7DFF8E0901DF0E0FC04301DF068
:1059800002FDD9F8000010B10368DB689847D9F828
:10599000000010B103681B689847DFF8C080D8F892
:1059A000000010B103685B699847D7F83C0110B15B
:1059B00003685B689847D8F8000010B103681B685B
:1059C0009847D7F83C0110B103689B6898470021BD
:1059D000F068FFF737FE14210446FFF737FEB06882
:1059E000002103685B6A9847054603F061FA706816
:1059F000002103685B6A98470646294603F036FA99
:105A0000331DC7F83C612846C9F80040C8F800506B
:105A1000CAF800302B68C6F808A0DB68EE63984728
:105A2000336830461B689847214628461FF044FDDE
:105A3000236820461B699847236820465B69BDE8B8
:105A4000F04718473C8D0308D0920308968E030850
:105A5000DD8E0308808F0308388A0120348A0120F4
:105A60002DE9F047D0E9556A0746B06803681B6A1C
:105A70009847B0F5045F05D2404BA321404A414806
:105A80002FF06CFE706803681B6A98470F2803D8D4
:105A90003D4BA4213A4AF2E7F06803681B6A984735
:105AA0003F2803D8394BA521354AE8E7DFF8E090D5
:105AB0001DF044FC04301DF066FCD9F8000010B164
:105AC0000368DB689847D9F8000010B103681B68C9
:105AD0009847DFF8C080D8F8000010B103685B6910
